:100000000C9435010C9466010C9466010C94660105
:100010000C9466010C9466010C9466010C946601C4
:100020000C9466010C9466010C9466010C946601B4
:100030000C9466010C9466010C9466010C946601A4
:100040000C9466010C9466010C9466010C94660194
:100050000C9466010C9466010C9466010C940404E3
:100060000C9466010C94CE030C94A4030C946601CA
:100070000C9466010C9466010C9466010C94660164
:100080000C9466010C9466010C9466010C94660154
:100090000C9466010C9466010C9466010C94660144
:1000A0000C9466010C9466010C9466010C94660134
:1000B0000C9466010C9466010C9466010C94660124
:1000C0000C9466010C9466010C9466010C94660114
:1000D0000C9466010C9466010C9466010C94660104
:1000E0000C9466010C94C6010C94D5020C94CC02BD
:1000F0000C94CF020C94E3020C94ED020C94F102E8
:100100000C94BA020C9495010C94FE010C944B02D1
:100110000C9468010C94FF020C94E7020C94FB020F
:100120000C94D9020C94B8010C94DF020C94FA02DE
:100130000C94F5020C94C0020C94C4020C94A4011B
:100140000C945A050C94C8020000210024002700DA
:100150002A002D00300033000101000004010701D6
:100160000A0100002200250028002B002E0031008B
:10017000340002010000050108010B01000020000D
:100180002300260029002C002F003200000100006F
:10019000030106010901050505050705080808080A
:1001A000020202020A0A080804040404010101010F
:1001B000010101010303030303030303040707070A
:1001C0000C0C0C0C0C0C0C0C0202020206060606AF
:1001D000060606060B0B0B0B0B0B0B0B010210207C
:1001E000200808102040102040800201020108046D
:1001F0000201010204081020408080402010080401
:100200000201800402018040201008040201080459
:10021000020101020408102040800102040810209D
:10022000408000000A0B02090C0D0E0807030401B0
:1002300000000000000000000000000000000000BE
:10024000000000000000000000000000000012118B
:10025000100000000000000000000000000000008E
:1002600000000000000000005A0511241FBECFEF5F
:10027000D1E2DEBFCDBF00E00CBF12E0A0E0B2E0F3
:10028000E2E2FBE000E00BBF02C007900D92AC3849
:10029000B107D9F723E0ACE8B2E001C01D92A23368
:1002A000B207E1F711E0C5E3D1E000E006C0219715
:1002B0000109802FFE010E948705C433D10780E029
:1002C0000807A9F70E944E040C948F050C940000B7
:1002D000AF92BF92CF92DF92EF92FF920F931F9354
:1002E000CF93DF936C017B018B01040F151FEB0192
:1002F0005E01AE18BF08C017D10759F06991D60149
:10030000ED91FC910190F081E02DC6011995892BAA
:1003100079F7C501DF91CF911F910F91FF90EF9079
:10032000DF90CF90BF90AF900895FC01538D448D26
:10033000252F30E0842F90E0821B930B541710F090
:10034000CF96089501970895FC01918D828D98179D
:1003500061F0A28DAE0FBF2FB11D5D968C91928D75
:100360009F5F9F73928F90E008958FEF9FEF0895A6
:10037000FC01918D828D981731F0828DE80FF11D6F
:10038000858D90E008958FEF9FEF0895FC01918D8A
:10039000228D892F90E0805C9F4F821B91098F7383
:1003A0009927089585E992E00E94C60121E0892BF2
:1003B00009F420E0822F0895FC01A48DA80FB92F25
:1003C000B11DA35ABF4F2C91848D90E001968F737D
:1003D0009927848FA689B7892C93A089B1898C919C
:1003E000837080648C93938D848D981306C00288EB
:1003F000F389E02D80818F7D80830895EF92FF92B5
:100400000F931F93CF93DF93EC0181E0888F9B8D37
:100410008C8D98131AC0E889F989808185FF15C0F1
:100420009FB7F894EE89FF896083E889F989808114
:100430008370806480839FBF81E090E0DF91CF91E3
:100440001F910F91FF90EF900895F62E0B8D10E005
:100450000F5F1F4F0F731127E02E8C8D8E110CC074
:100460000FB607FCFACFE889F989808185FFF5CFBF
:10047000CE010E94DC01F1CFEB8DEC0FFD2FF11DC1
:10048000E35AFF4FF0829FB7F8940B8FEA89FB89FC
:1004900080818062CFCFCF93DF93EC01888D88235A
:1004A000B9F0AA89BB89E889F9898C9185FD03C0D7
:1004B000808186FD0DC00FB607FCF7CF8C9185FFBC
:1004C000F2CF808185FFEDCFCE010E94DC01E9CF24
:1004D000DF91CF91089580E090E0892B29F00E9470
:1004E000D20181110E94000080E090E0892B49F048
:1004F00080E090E0892B29F00E94000081110E9489
:10050000000080E090E0892B49F080E090E0892BAA
:1005100029F00E94000081110E94000080E090E01C
:10052000892B49F080E090E0892B29F00E9400009F
:1005300081110C94000008958150823108F05AC056
:10054000E82FF0E08827E855FD4F8F4F0C94870582
:10055000C802CC02BA02C002C402FA02CF02D5021B
:10056000D902DF02E302E702ED02F102FA02F5022C
:10057000FB02FF02809180008F77809380000895B6
:10058000809180008F7DF9CF80918000877FF5CFAB
:1005900084B58F7784BD089584B58F7DFBCF80911E
:1005A000B0008F778093B00008958091B0008F7D68
:1005B000F9CF809190008F7780939000089580917B
:1005C00090008F7DF9CF80919000877FF5CF80914B
:1005D000A0008F778093A00008958091A0008F7D68
:1005E000F9CF8091A000877FF5CF809120018F7790
:1005F000809320010895809120018F7DF9CF809113
:100600002001877FF5CF1F93CF93DF93282F30E012
:10061000F901EE5DFD4F8491F901E452FE4FD49152
:10062000F901EA56FE4FC491CC23A9F0162F81118F
:100630000E949C02EC2FF0E0EE0FFF1FEE59FE4FE0
:10064000A591B4918FB7F894EC91111108C0D09591
:10065000DE23DC938FBFDF91CF911F910895DE2BB6
:10066000F8CFCF93DF9390E0FC01E452FE4F24914A
:100670008A569E4FFC0184918823D1F090E0880F28
:10068000991FFC01E85BFE4FA591B491FC01EE5966
:10069000FE4FC591D49161110EC09FB7F8948C9113
:1006A000E22FE0958E238C932881E223E8839FBF7D
:1006B000DF91CF9108958FB7F894EC91E22BEC93F2
:1006C0008FBFF6CF3FB7F89480919102909192023C
:1006D000A0919302B091940226B5A89B05C02F3F2C
:1006E00019F00196A11DB11D3FBFBA2FA92F982F58
:1006F0008827BC01CD01620F711D811D911D42E053
:10070000660F771F881F991F4A95D1F70895CF93D9
:10071000DF93FC0101900020E9F73197AF01481BFE
:10072000590BBC0185E992E00E946801EC0142E0AE
:1007300050E062E172E085E992E00E9468018C0F6E
:100740009D1FDF91CF9108951F920F920FB60F92C8
:1007500011240BB60F922F933F934F935F936F9398
:100760007F938F939F93AF93BF93EF93FF9385E90D
:1007700092E00E94DC01FF91EF91BF91AF919F91B8
:100780008F917F916F915F914F913F912F910F903A
:100790000BBE0F900FBE0F901F9018951F920F92D7
:1007A0000FB60F9211240BB60F922F938F939F9336
:1007B000EF93FF93E091A502F091A6028081E09172
:1007C000AB02F091AC0282FD1DC090818091AE021F
:1007D0008F5F8F732091AF02821741F0E091AE02DC
:1007E000F0E0EB56FD4F958F8093AE02FF91EF91B5
:1007F0009F918F912F910F900BBE0F900FBE0F9076
:100800001F9018958081F2CF1F920F920FB60F9212
:1008100011242F933F938F939F93AF93BF93809116
:100820008D0290918E02A0918F02B0919002309132
:100830008C0223E0230F2D3758F50196A11DB11D21
:1008400020938C0280938D0290938E02A0938F024E
:10085000B09390028091910290919202A0919302A4
:10086000B09194020196A11DB11D809391029093C5
:100870009202A0939302B0939402BF91AF919F9183
:100880008F913F912F910F900FBE0F901F90189551
:1008900026E8230F0296A11DB11DD2CF789484B50E
:1008A000826084BD84B5816084BD85B5826085BD6C
:1008B00085B5816085BD80916E00816080936E00FA
:1008C00010928100809181008260809381008091EC
:1008D000810081608093810080918000816080939D
:1008E00080008091B10084608093B1008091B0005D
:1008F00081608093B000809191008260809391002C
:10090000809191008160809391008091900081603E
:10091000809390008091A10082608093A1008091DB
:10092000A10081608093A1008091A00081608093EC
:10093000A00080912101826080932101809121019A
:10094000816080932101809120018160809320014A
:1009500080917A00846080937A0080917A0082602E
:1009600080937A0080917A00816080937A008091F0
:100970007A00806880937A001092C10061E08DE077
:100980000E94310361E08CE00E94310361E08CE061
:100990000E94030360E087E30E943103E091A50217
:1009A000F091A60282E08083E091A102F091A20280
:1009B0001082E091A302F091A4028FEC8083109248
:1009C000AD02E091A902F091AA0286E08083E09155
:1009D000A702F091A802808180618083E091A70244
:1009E000F091A802808188608083E091A702F09155
:1009F000A802808180688083E091A702F091A8021C
:100A000080818F7D808385E192E00E9487030E9430
:100A100062034B015C0124EFC22EDD24D394E12C50
:100A2000F12C0E946203681979098A099B09683EC2
:100A3000734081059105A8F321E0C21AD108E108AD
:100A4000F10888EE880E83E0981EA11CB11CC11429
:100A5000D104E104F10429F785E392E00E948703C1
:100A600084E592E00E948703C9E5D2E003E112E049
:100A70009DECE92E91E0F92EFE018491F801C490DD
:100A8000F701D490DD2079F081110E949C02ED2DB8
:100A9000F0E0EE0FFF1FE458FE4FA591B4918C914A
:100AA000C82261E009F460E08CE00E9403030E9428
:100AB0006B02E2CFE5E9F2E01382128288EE93E066
:100AC000A0E0B0E084839583A683B78384E092E0BE
:100AD0009183808385EC90E09587848784EC90E017
:100AE0009787868780EC90E0918B808B81EC90E0FB
:100AF000938B828B82EC90E0958B848B86EC90E0DC
:100B0000978B868B118E128E138E148E0895EE0F96
:100B1000FF1F881F8BBF0790F691E02D1994F89462
:020B2000FFCF05
:100B220000000000FE01680195014B02C601A4010C
:100B3200B8010D0A00496E6963696569206F20700A
:100B4200726F6772616D6120636F6D2061207365E2
:100B52007475702100506173736172616D2D7365DC
:100B620020353030206D696C6973736567756E640A
:100B72006F732E005465726D696E65692061207312
:100B8200657475702E2041676F72612076616920ED
:100B9200696E6963696172206F206C6F6F70206487
:0C0BA2006F2070726F6772616D612E0031
:00000001FF
